{"abi":[{"type":"constructor","inputs":[{"name":"_basicToken","type":"address","internalType":"contract IERC20"},{"name":"_rewardRate","type":"uint256","internalType":"uint256"},{"name":"_emissionStart","type":"uint256","internalType":"uint256"},{"name":"_emissionDuration","type":"uint256","internalType":"uint256"}],"stateMutability":"nonpayable"},{"type":"function","name":"basicToken","inputs":[],"outputs":[{"name":"","type":"address","internalType":"contract IERC20"}],"stateMutability":"view"},{"type":"function","name":"claimReward","inputs":[],"outputs":[],"stateMutability":"nonpayable"},{"type":"function","name":"completeUnstake","inputs":[],"outputs":[],"stateMutability":"nonpayable"},{"type":"function","name":"earned","inputs":[{"name":"account","type":"address","internalType":"address"}],"outputs":[{"name":"","type":"uint256","internalType":"uint256"}],"stateMutability":"view"},{"type":"function","name":"emissionEnd","inputs":[],"outputs":[{"name":"","type":"uint256","internalType":"uint256"}],"stateMutability":"view"},{"type":"function","name":"emissionStart","inputs":[],"outputs":[{"name":"","type":"uint256","internalType":"uint256"}],"stateMutability":"view"},{"type":"function","name":"feesAccrued","inputs":[],"outputs":[{"name":"","type":"uint256","internalType":"uint256"}],"stateMutability":"view"},{"type":"function","name":"getRemainingUnstakeTime","inputs":[{"name":"_staker","type":"address","internalType":"address"}],"outputs":[{"name":"","type":"uint256","internalType":"uint256"}],"stateMutability":"view"},{"type":"function","name":"initiateUnstake","inputs":[],"outputs":[],"stateMutability":"nonpayable"},{"type":"function","name":"lastApplicableTime","inputs":[],"outputs":[{"name":"","type":"uint256","internalType":"uint256"}],"stateMutability":"view"},{"type":"function","name":"lastUpdateTime","inputs":[],"outputs":[{"name":"","type":"uint256","internalType":"uint256"}],"stateMutability":"view"},{"type":"function","name":"owner","inputs":[],"outputs":[{"name":"","type":"address","internalType":"address"}],"stateMutability":"view"},{"type":"function","name":"renounceOwnership","inputs":[],"outputs":[],"stateMutability":"nonpayable"},{"type":"function","name":"rewardPerToken","inputs":[],"outputs":[{"name":"","type":"uint256","internalType":"uint256"}],"stateMutability":"view"},{"type":"function","name":"rewardPerTokenStored","inputs":[],"outputs":[{"name":"","type":"uint256","internalType":"uint256"}],"stateMutability":"view"},{"type":"function","name":"rewardRate","inputs":[],"outputs":[{"name":"","type":"uint256","internalType":"uint256"}],"stateMutability":"view"},{"type":"function","name":"setEmissionDetails","inputs":[{"name":"_emissionDuration","type":"uint256","internalType":"uint256"}],"outputs":[],"stateMutability":"nonpayable"},{"type":"function","name":"setUnstakeFeePercent","inputs":[{"name":"_newFee","type":"uint256","internalType":"uint256"}],"outputs":[],"stateMutability":"nonpayable"},{"type":"function","name":"setUnstakeTimeLock","inputs":[{"name":"_newTimeLock","type":"uint256","internalType":"uint256"}],"outputs":[],"stateMutability":"nonpayable"},{"type":"function","name":"stake","inputs":[{"name":"_amount","type":"uint256","internalType":"uint256"}],"outputs":[],"stateMutability":"nonpayable"},{"type":"function","name":"stakers","inputs":[{"name":"","type":"address","internalType":"address"}],"outputs":[{"name":"amountStaked","type":"uint256","internalType":"uint256"},{"name":"rewardDebt","type":"uint256","internalType":"uint256"},{"name":"rewards","type":"uint256","internalType":"uint256"},{"name":"unstakeInitTime","type":"uint256","internalType":"uint256"},{"name":"claimedAfterUnstake","type":"bool","internalType":"bool"}],"stateMutability":"view"},{"type":"function","name":"totalStaked","inputs":[],"outputs":[{"name":"","type":"uint256","internalType":"uint256"}],"stateMutability":"view"},{"type":"function","name":"totalStakedAccruingRewards","inputs":[],"outputs":[{"name":"","type":"uint256","internalType":"uint256"}],"stateMutability":"view"},{"type":"function","name":"transferOwnership","inputs":[{"name":"newOwner","type":"address","internalType":"address"}],"outputs":[],"stateMutability":"nonpayable"},{"type":"function","name":"unstakeFeePercent","inputs":[],"outputs":[{"name":"","type":"uint256","internalType":"uint256"}],"stateMutability":"view"},{"type":"function","name":"unstakeTimeLock","inputs":[],"outputs":[{"name":"","type":"uint256","internalType":"uint256"}],"stateMutability":"view"},{"type":"function","name":"withdrawFees","inputs":[{"name":"amount","type":"uint256","internalType":"uint256"}],"outputs":[],"stateMutability":"nonpayable"},{"type":"event","name":"EmissionsUpdated","inputs":[{"name":"newEmissionEnd","type":"uint256","indexed":false,"internalType":"uint256"}],"anonymous":false},{"type":"event","name":"OwnershipTransferred","inputs":[{"name":"previousOwner","type":"address","indexed":true,"internalType":"address"},{"name":"newOwner","type":"address","indexed":true,"internalType":"address"}],"anonymous":false},{"type":"event","name":"RewardPaid","inputs":[{"name":"user","type":"address","indexed":true,"internalType":"address"},{"name":"reward","type":"uint256","indexed":false,"internalType":"uint256"}],"anonymous":false},{"type":"event","name":"Staked","inputs":[{"name":"user","type":"address","indexed":true,"internalType":"address"},{"name":"amount","type":"uint256","indexed":false,"internalType":"uint256"}],"anonymous":false},{"type":"event","name":"UnstakeFeePercentUpdated","inputs":[{"name":"newFeePercent","type":"uint256","indexed":false,"internalType":"uint256"}],"anonymous":false},{"type":"event","name":"UnstakeInitiated","inputs":[{"name":"user","type":"address","indexed":true,"internalType":"address"}],"anonymous":false},{"type":"event","name":"UnstakeTimeLockUpdated","inputs":[{"name":"newTimeLock","type":"uint256","indexed":false,"internalType":"uint256"}],"anonymous":false},{"type":"event","name":"Unstaked","inputs":[{"name":"user","type":"address","indexed":true,"internalType":"address"},{"name":"amount","type":"uint256","indexed":false,"internalType":"uint256"}],"anonymous":false},{"type":"error","name":"OwnableInvalidOwner","inputs":[{"name":"owner","type":"address","internalType":"address"}]},{"type":"error","name":"OwnableUnauthorizedAccount","inputs":[{"name":"account","type":"address","internalType":"address"}]},{"type":"error","name":"ReentrancyGuardReentrantCall","inputs":[]}],"bytecode":{"object":"0x608060405262093a80600855600060095534801561001c57600080fd5b506040516200151e3803806200151e83398101604081905261003d91610100565b6001600055338061006857604051631e4fbdf760e01b81526000600482015260240160405180910390fd5b610071816100ae565b50600280546001600160a01b0319166001600160a01b0386161790556005839055600a8290556100a1818361014b565b600b555061017292505050565b600180546001600160a01b038381166001600160a01b0319831681179093556040519116919082907f8be0079c531659141344cd1fd0a4f28419497f9722a3daafe3b4186f6b6457e090600090a35050565b6000806000806080858703121561011657600080fd5b84516001600160a01b038116811461012d57600080fd5b60208601516040870151606090970151919890975090945092505050565b8082018082111561016c57634e487b7160e01b600052601160045260246000fd5b92915050565b61139c80620001826000396000f3fe608060405234801561001057600080fd5b50600436106101a85760003560e01c8063817b1cd2116100f9578063b293e8d211610097578063c8f33c9111610071578063c8f33c911461035d578063cd3daf9d14610366578063df136d651461036e578063f2fde38b1461037757600080fd5b8063b293e8d21461032f578063b88a802f14610342578063b9d1a32b1461034a57600080fd5b80639168ae72116100d35780639168ae721461029657806394db059514610300578063a694fc3a14610309578063a7dc23c01461031c57600080fd5b8063817b1cd2146102735780638368909c1461027c5780638da5cb5b1461028557600080fd5b806333080a12116101665780635e318e07116101405780635e318e071461024757806363803b231461025a578063715018a6146102625780637b0a47ee1461026a57600080fd5b806333080a1214610221578063513da9481461022b5780635212cca81461023457600080fd5b80628cc262146101ad5780630976769d146101d3578063190b8dc5146101dc57806323fac263146102075780632bce9f851461020f5780632c1dcecf14610218575b600080fd5b6101c06101bb366004611287565b61038a565b6040519081526020015b60405180910390f35b6101c060045481565b6002546101ef906001600160a01b031681565b6040516001600160a01b0390911681526020016101ca565b6101c061041c565b6101c060095481565b6101c060085481565b610229610435565b005b6101c0600a5481565b6102296102423660046112b0565b610596565b6102296102553660046112b0565b61063b565b610229610768565b610229610b80565b6101c060055481565b6101c060035481565b6101c0600b5481565b6001546001600160a01b03166101ef565b6102d66102a4366004611287565b600d60205260009081526040902080546001820154600283015460038401546004909401549293919290919060ff1685565b6040805195865260208601949094529284019190915260608301521515608082015260a0016101ca565b6101c0600c5481565b6102296103173660046112b0565b610b92565b61022961032a3660046112b0565b610dff565b61022961033d3660046112b0565b610e9d565b610229610ee8565b6101c0610358366004611287565b6110eb565b6101c060065481565b6101c0611142565b6101c060075481565b610229610385366004611287565b6111a3565b6001600160a01b0381166000908152600d60205260408120600481015460ff1615156001036103bc5750600092915050565b6003810154156103d0576002015492915050565b8060020154670de0b6b3a764000082600101546103eb611142565b6103f591906112df565b835461040191906112f8565b61040b919061130f565b6104159190611331565b9392505050565b6000600b54421061042e5750600b5490565b425b905090565b3361043e611142565b60075561044961041c565b6006556001600160a01b0381166000908152600d602052604081206003810154909103610487576104798261038a565b600282015560075460018201555b600481015460ff1615156001036104a057600060028201555b336000908152600d6020526040902080546104f55760405162461bcd60e51b815260206004820152601060248201526f139bc81d1bdad95b9cc81cdd185ad95960821b60448201526064015b60405180910390fd5b6003810154156105475760405162461bcd60e51b815260206004820152601960248201527f556e7374616b6520616c726561647920696e697469617465640000000000000060448201526064016104ec565b4260038201558054600480546000906105619084906112df565b909155505060405133907f1519c8ae4064242b3caf78c4eb66acc5055fbe9cd35f28294b5492f6aea9ff6e90600090a2505050565b61059e6111de565b60c88111156105ff5760405162461bcd60e51b815260206004820152602760248201527f556e7374616b652066656520657863656564732032252c206d6178696d756d20604482015266185b1b1bddd95960ca1b60648201526084016104ec565b60098190556040518181527fe718b78d7b4446604944eca0ff374177fe5e74c67f04441877baeb3d412c99c8906020015b60405180910390a150565b6106436111de565b600c548111156106955760405162461bcd60e51b815260206004820152601b60248201527f416d6f756e74206578636565647320616363727565642066656573000000000060448201526064016104ec565b80600c60008282546106a791906112df565b909155505060025460405163a9059cbb60e01b8152336004820152602481018390526001600160a01b039091169063a9059cbb906044016020604051808303816000875af11580156106fd573d6000803e3d6000fd5b505050506040513d601f19601f820116820180604052508101906107219190611344565b6107655760405162461bcd60e51b8152602060048201526015602482015274119959481dda5d1a191c985dd85b0819985a5b1959605a1b60448201526064016104ec565b50565b61077061120b565b33610779611142565b60075561078461041c565b6006556001600160a01b0381166000908152600d6020526040812060038101549091036107c2576107b48261038a565b600282015560075460018201555b600481015460ff1615156001036107db57600060028201555b336000908152600d60205260409020805461082b5760405162461bcd60e51b815260206004820152601060248201526f139bc81d1bdad95b9cc81cdd185ad95960821b60448201526064016104ec565b60008160030154116108775760405162461bcd60e51b8152602060048201526015602482015274155b9cdd185ad9481b9bdd081a5b9a5d1a585d1959605a1b60448201526064016104ec565b60085481600301546108899190611331565b4210156108d85760405162461bcd60e51b815260206004820152601760248201527f54696d656c6f636b206e6f74207965742070617373656400000000000000000060448201526064016104ec565b80546002820154600954600090612710906108f390856112f8565b6108fd919061130f565b9050600061090b82856112df565b905081600c600082825461091f9190611331565b92505081905550836003600082825461093891906112df565b90915550508215610a3e57600061094f8483611331565b60025460405163a9059cbb60e01b8152336004820152602481018390529192506001600160a01b03169063a9059cbb906044016020604051808303816000875af11580156109a1573d6000803e3d6000fd5b505050506040513d601f19601f820116820180604052508101906109c59190611344565b610a035760405162461bcd60e51b815260206004820152600f60248201526e151c985b9cd9995c8819985a5b1959608a1b60448201526064016104ec565b60405184815233907fe2403640ba68fed3a2f88b7557551d1993f84b99bb10ff833f0cf8db0c5e04869060200160405180910390a250610aff565b60025460405163a9059cbb60e01b8152336004820152602481018390526001600160a01b039091169063a9059cbb906044016020604051808303816000875af1158015610a8f573d6000803e3d6000fd5b505050506040513d601f19601f82011682018060405250810190610ab39190611344565b610aff5760405162461bcd60e51b815260206004820152601760248201527f556e7374616b65207472616e73666572206661696c656400000000000000000060448201526064016104ec565b336000818152600d6020526040808220828155600181018390556002810183905560038101929092556004909101805460ff19169055517f0f5bb82176feb1b5e747e28471aa92156a04d9f3ab9f45f28e2d704232b93f7590610b659087815260200190565b60405180910390a250505050505050610b7e6001600055565b565b610b886111de565b610b7e6000611235565b610b9a61120b565b33610ba3611142565b600755610bae61041c565b6006556001600160a01b0381166000908152600d602052604081206003810154909103610bec57610bde8261038a565b600282015560075460018201555b600481015460ff161515600103610c0557600060028201555b60008311610c465760405162461bcd60e51b815260206004820152600e60248201526d043616e6e6f74207374616b6520360941b60448201526064016104ec565b336000908152600d60205260409020600381015415610cb65760405162461bcd60e51b815260206004820152602660248201527f43616e6e6f74207374616b6520616674657220696e6974696174696e6720756e60448201526539ba30b5b29760d11b60648201526084016104ec565b8360036000828254610cc89190611331565b925050819055508360046000828254610ce19190611331565b9091555050805484908290600090610cfa908490611331565b90915550506002546040516323b872dd60e01b8152336004820152306024820152604481018690526001600160a01b03909116906323b872dd906064016020604051808303816000875af1158015610d56573d6000803e3d6000fd5b505050506040513d601f19601f82011682018060405250810190610d7a9190611344565b610dbd5760405162461bcd60e51b8152602060048201526014602482015273151bdad95b8819195c1bdcda5d0819985a5b195960621b60448201526064016104ec565b60405184815233907f9e71bc8eea02a63969f509818f2dafb9254532904319f9dbda79b67bd34a5f3d9060200160405180910390a25050506107656001600055565b610e076111de565b6213c680811115610e695760405162461bcd60e51b815260206004820152602660248201527f54696d65206c6f636b206d757374206265206265747765656e203020746f203160448201526535206461797360d01b60648201526084016104ec565b60088190556040518181527e304d9af03082613b46c738ade93be8d8c12d696efb7431d07e51837273c2fa90602001610630565b610ea56111de565b80600b54610eb39190611331565b600b8190556040519081527f72e8f210806bb29eb1445af1720350cfe89280bb2c2eff23d882cd024012146190602001610630565b610ef061120b565b33610ef9611142565b600755610f0461041c565b6006556001600160a01b0381166000908152600d602052604081206003810154909103610f4257610f348261038a565b600282015560075460018201555b600481015460ff161515600103610f5b57600060028201555b336000908152600d602052604090206002015480610fb15760405162461bcd60e51b81526020600482015260136024820152724e6f207265776172647320746f20636c61696d60681b60448201526064016104ec565b336000908152600d6020526040812060028101919091556003015415610fef57336000908152600d60205260409020600401805460ff191660011790555b60025460405163a9059cbb60e01b8152336004820152602481018390526001600160a01b039091169063a9059cbb906044016020604051808303816000875af1158015611040573d6000803e3d6000fd5b505050506040513d601f19601f820116820180604052508101906110649190611344565b6110a95760405162461bcd60e51b815260206004820152601660248201527514995dd85c99081d1c985b9cd9995c8819985a5b195960521b60448201526064016104ec565b60405181815233907fe2403640ba68fed3a2f88b7557551d1993f84b99bb10ff833f0cf8db0c5e04869060200160405180910390a2505050610b7e6001600055565b6001600160a01b0381166000908152600d6020526040812060085460038201546111159190611331565b4210156111395742600854826003015461112f9190611331565b61041591906112df565b50600092915050565b6000600454600003611155575060075490565b60045460055460065461116661041c565b61117091906112df565b61117a91906112f8565b61118c90670de0b6b3a76400006112f8565b611196919061130f565b6007546104309190611331565b6111ab6111de565b6001600160a01b0381166111d557604051631e4fbdf760e01b8152600060048201526024016104ec565b61076581611235565b6001546001600160a01b03163314610b7e5760405163118cdaa760e01b81523360048201526024016104ec565b60026000540361122e57604051633ee5aeb560e01b815260040160405180910390fd5b6002600055565b600180546001600160a01b038381166001600160a01b0319831681179093556040519116919082907f8be0079c531659141344cd1fd0a4f28419497f9722a3daafe3b4186f6b6457e090600090a35050565b60006020828403121561129957600080fd5b81356001600160a01b038116811461041557600080fd5b6000602082840312156112c257600080fd5b5035919050565b634e487b7160e01b600052601160045260246000fd5b818103818111156112f2576112f26112c9565b92915050565b80820281158282048414176112f2576112f26112c9565b60008261132c57634e487b7160e01b600052601260045260246000fd5b500490565b808201808211156112f2576112f26112c9565b60006020828403121561135657600080fd5b8151801515811461041557600080fdfea264697066735822122010c606feb257c1826a840bee353b3741eb72b681b0a2b43fe5fe9c4759d3fb4664736f6c63430008180033","linkReferences":{}},"methodIdentifiers":{"basicToken()":"190b8dc5","claimReward()":"b88a802f","completeUnstake()":"63803b23","earned(address)":"008cc262","emissionEnd()":"8368909c","emissionStart()":"513da948","feesAccrued()":"94db0595","getRemainingUnstakeTime(address)":"b9d1a32b","initiateUnstake()":"33080a12","lastApplicableTime()":"23fac263","lastUpdateTime()":"c8f33c91","owner()":"8da5cb5b","renounceOwnership()":"715018a6","rewardPerToken()":"cd3daf9d","rewardPerTokenStored()":"df136d65","rewardRate()":"7b0a47ee","setEmissionDetails(uint256)":"b293e8d2","setUnstakeFeePercent(uint256)":"5212cca8","setUnstakeTimeLock(uint256)":"a7dc23c0","stake(uint256)":"a694fc3a","stakers(address)":"9168ae72","totalStaked()":"817b1cd2","totalStakedAccruingRewards()":"0976769d","transferOwnership(address)":"f2fde38b","unstakeFeePercent()":"2bce9f85","unstakeTimeLock()":"2c1dcecf","withdrawFees(uint256)":"5e318e07"},"id":31}