{"abi":[{"type":"constructor","inputs":[{"name":"_basicToken","type":"address","internalType":"contract IERC20"},{"name":"_rewardRate","type":"uint256","internalType":"uint256"},{"name":"_emissionStart","type":"uint256","internalType":"uint256"},{"name":"_emissionDuration","type":"uint256","internalType":"uint256"}],"stateMutability":"nonpayable"},{"type":"function","name":"basicToken","inputs":[],"outputs":[{"name":"","type":"address","internalType":"contract IERC20"}],"stateMutability":"view"},{"type":"function","name":"claimReward","inputs":[],"outputs":[],"stateMutability":"nonpayable"},{"type":"function","name":"completeUnstake","inputs":[],"outputs":[],"stateMutability":"nonpayable"},{"type":"function","name":"earned","inputs":[{"name":"account","type":"address","internalType":"address"}],"outputs":[{"name":"","type":"uint256","internalType":"uint256"}],"stateMutability":"view"},{"type":"function","name":"emissionEnd","inputs":[],"outputs":[{"name":"","type":"uint256","internalType":"uint256"}],"stateMutability":"view"},{"type":"function","name":"emissionStart","inputs":[],"outputs":[{"name":"","type":"uint256","internalType":"uint256"}],"stateMutability":"view"},{"type":"function","name":"feesAccrued","inputs":[],"outputs":[{"name":"","type":"uint256","internalType":"uint256"}],"stateMutability":"view"},{"type":"function","name":"getRemainingUnstakeTime","inputs":[{"name":"_staker","type":"address","internalType":"address"}],"outputs":[{"name":"","type":"uint256","internalType":"uint256"}],"stateMutability":"view"},{"type":"function","name":"initiateUnstake","inputs":[],"outputs":[],"stateMutability":"nonpayable"},{"type":"function","name":"lastApplicableTime","inputs":[],"outputs":[{"name":"","type":"uint256","internalType":"uint256"}],"stateMutability":"view"},{"type":"function","name":"lastUpdateTime","inputs":[],"outputs":[{"name":"","type":"uint256","internalType":"uint256"}],"stateMutability":"view"},{"type":"function","name":"owner","inputs":[],"outputs":[{"name":"","type":"address","internalType":"address"}],"stateMutability":"view"},{"type":"function","name":"renounceOwnership","inputs":[],"outputs":[],"stateMutability":"nonpayable"},{"type":"function","name":"rewardPerToken","inputs":[],"outputs":[{"name":"","type":"uint256","internalType":"uint256"}],"stateMutability":"view"},{"type":"function","name":"rewardPerTokenStored","inputs":[],"outputs":[{"name":"","type":"uint256","internalType":"uint256"}],"stateMutability":"view"},{"type":"function","name":"rewardRate","inputs":[],"outputs":[{"name":"","type":"uint256","internalType":"uint256"}],"stateMutability":"view"},{"type":"function","name":"setEmissionDetails","inputs":[{"name":"_emissionDuration","type":"uint256","internalType":"uint256"}],"outputs":[],"stateMutability":"nonpayable"},{"type":"function","name":"setUnstakeFeePercent","inputs":[{"name":"_newFee","type":"uint256","internalType":"uint256"}],"outputs":[],"stateMutability":"nonpayable"},{"type":"function","name":"setUnstakeTimeLock","inputs":[{"name":"_newTimeLock","type":"uint256","internalType":"uint256"}],"outputs":[],"stateMutability":"nonpayable"},{"type":"function","name":"stake","inputs":[{"name":"_amount","type":"uint256","internalType":"uint256"}],"outputs":[],"stateMutability":"nonpayable"},{"type":"function","name":"stakers","inputs":[{"name":"","type":"address","internalType":"address"}],"outputs":[{"name":"amountStaked","type":"uint256","internalType":"uint256"},{"name":"rewardDebt","type":"uint256","internalType":"uint256"},{"name":"rewards","type":"uint256","internalType":"uint256"},{"name":"unstakeInitTime","type":"uint256","internalType":"uint256"},{"name":"claimedAfterUnstake","type":"bool","internalType":"bool"}],"stateMutability":"view"},{"type":"function","name":"totalStaked","inputs":[],"outputs":[{"name":"","type":"uint256","internalType":"uint256"}],"stateMutability":"view"},{"type":"function","name":"transferOwnership","inputs":[{"name":"newOwner","type":"address","internalType":"address"}],"outputs":[],"stateMutability":"nonpayable"},{"type":"function","name":"unstakeFeePercent","inputs":[],"outputs":[{"name":"","type":"uint256","internalType":"uint256"}],"stateMutability":"view"},{"type":"function","name":"unstakeTimeLock","inputs":[],"outputs":[{"name":"","type":"uint256","internalType":"uint256"}],"stateMutability":"view"},{"type":"function","name":"withdrawFees","inputs":[{"name":"amount","type":"uint256","internalType":"uint256"}],"outputs":[],"stateMutability":"nonpayable"},{"type":"event","name":"EmissionsUpdated","inputs":[{"name":"newEmissionEnd","type":"uint256","indexed":false,"internalType":"uint256"}],"anonymous":false},{"type":"event","name":"OwnershipTransferred","inputs":[{"name":"previousOwner","type":"address","indexed":true,"internalType":"address"},{"name":"newOwner","type":"address","indexed":true,"internalType":"address"}],"anonymous":false},{"type":"event","name":"RewardPaid","inputs":[{"name":"user","type":"address","indexed":true,"internalType":"address"},{"name":"reward","type":"uint256","indexed":false,"internalType":"uint256"}],"anonymous":false},{"type":"event","name":"Staked","inputs":[{"name":"user","type":"address","indexed":true,"internalType":"address"},{"name":"amount","type":"uint256","indexed":false,"internalType":"uint256"}],"anonymous":false},{"type":"event","name":"UnstakeInitiated","inputs":[{"name":"user","type":"address","indexed":true,"internalType":"address"}],"anonymous":false},{"type":"event","name":"Unstaked","inputs":[{"name":"user","type":"address","indexed":true,"internalType":"address"},{"name":"amount","type":"uint256","indexed":false,"internalType":"uint256"}],"anonymous":false},{"type":"error","name":"OwnableInvalidOwner","inputs":[{"name":"owner","type":"address","internalType":"address"}]},{"type":"error","name":"OwnableUnauthorizedAccount","inputs":[{"name":"account","type":"address","internalType":"address"}]},{"type":"error","name":"ReentrancyGuardReentrantCall","inputs":[]}],"bytecode":{"object":"0x60806040526213c680600755600060085534801561001c57600080fd5b50604051620014203803806200142083398101604081905261003d91610100565b6001600055338061006857604051631e4fbdf760e01b81526000600482015260240160405180910390fd5b610071816100ae565b50600280546001600160a01b0319166001600160a01b038616179055600483905560098290556100a1818361014b565b600a555061017292505050565b600180546001600160a01b038381166001600160a01b0319831681179093556040519116919082907f8be0079c531659141344cd1fd0a4f28419497f9722a3daafe3b4186f6b6457e090600090a35050565b6000806000806080858703121561011657600080fd5b84516001600160a01b038116811461012d57600080fd5b60208601516040870151606090970151919890975090945092505050565b8082018082111561016c57634e487b7160e01b600052601160045260246000fd5b92915050565b61129e80620001826000396000f3fe608060405234801561001057600080fd5b506004361061018d5760003560e01c80638368909c116100de578063b293e8d211610097578063c8f33c9111610071578063c8f33c9114610339578063cd3daf9d14610342578063df136d651461034a578063f2fde38b1461035357600080fd5b8063b293e8d21461030b578063b88a802f1461031e578063b9d1a32b1461032657600080fd5b80638368909c146102585780638da5cb5b146102615780639168ae721461027257806394db0595146102dc578063a694fc3a146102e5578063a7dc23c0146102f857600080fd5b8063513da9481161014b57806363803b231161012557806363803b2314610236578063715018a61461023e5780637b0a47ee14610246578063817b1cd21461024f57600080fd5b8063513da948146102075780635212cca8146102105780635e318e071461022357600080fd5b80628cc26214610192578063190b8dc5146101b857806323fac263146101e35780632bce9f85146101eb5780632c1dcecf146101f457806333080a12146101fd575b600080fd5b6101a56101a0366004611189565b610366565b6040519081526020015b60405180910390f35b6002546101cb906001600160a01b031681565b6040516001600160a01b0390911681526020016101af565b6101a56103e4565b6101a560085481565b6101a560075481565b6102056103fd565b005b6101a560095481565b61020561021e3660046111b2565b61054c565b6102056102313660046111b2565b6105ba565b6102056106e7565b610205610aea565b6101a560045481565b6101a560035481565b6101a5600a5481565b6001546001600160a01b03166101cb565b6102b2610280366004611189565b600c60205260009081526040902080546001820154600283015460038401546004909401549293919290919060ff1685565b6040805195865260208601949094529284019190915260608301521515608082015260a0016101af565b6101a5600b5481565b6102056102f33660046111b2565b610afc565b6102056103063660046111b2565b610d3d565b6102056103193660046111b2565b610dac565b610205610dfd565b6101a5610334366004611189565b610fed565b6101a560055481565b6101a5611044565b6101a560065481565b610205610361366004611189565b6110a5565b6001600160a01b0381166000908152600c60205260408120600481015460ff1615156001036103985750600092915050565b8060020154670de0b6b3a764000082600101546103b3611044565b6103bd91906111e1565b83546103c991906111fa565b6103d39190611211565b6103dd9190611233565b9392505050565b6000600a5442106103f65750600a5490565b425b905090565b6104056110e0565b3361040e611044565b6006556104196103e4565b6005556001600160a01b0381161561045e5761043481610366565b6001600160a01b0382166000908152600c6020526040902060028101919091556006546001909101555b336000908152600c6020526040902080546104b35760405162461bcd60e51b815260206004820152601060248201526f139bc81d1bdad95b9cc81cdd185ad95960821b60448201526064015b60405180910390fd5b6003810154156105055760405162461bcd60e51b815260206004820152601960248201527f556e7374616b6520616c726561647920696e697469617465640000000000000060448201526064016104aa565b426003820155600654600182015560405133907f1519c8ae4064242b3caf78c4eb66acc5055fbe9cd35f28294b5492f6aea9ff6e90600090a2505061054a6001600055565b565b61055461110a565b60c88111156105b55760405162461bcd60e51b815260206004820152602760248201527f556e7374616b652066656520657863656564732032252c206d6178696d756d20604482015266185b1b1bddd95960ca1b60648201526084016104aa565b600855565b6105c261110a565b600b548111156106145760405162461bcd60e51b815260206004820152601b60248201527f416d6f756e74206578636565647320616363727565642066656573000000000060448201526064016104aa565b80600b600082825461062691906111e1565b909155505060025460405163a9059cbb60e01b8152336004820152602481018390526001600160a01b039091169063a9059cbb906044016020604051808303816000875af115801561067c573d6000803e3d6000fd5b505050506040513d601f19601f820116820180604052508101906106a09190611246565b6106e45760405162461bcd60e51b8152602060048201526015602482015274119959481dda5d1a191c985dd85b0819985a5b1959605a1b60448201526064016104aa565b50565b6106ef6110e0565b336106f8611044565b6006556107036103e4565b6005556001600160a01b038116156107485761071e81610366565b6001600160a01b0382166000908152600c6020526040902060028101919091556006546001909101555b336000908152600c6020526040902080546107985760405162461bcd60e51b815260206004820152601060248201526f139bc81d1bdad95b9cc81cdd185ad95960821b60448201526064016104aa565b60008160030154116107e45760405162461bcd60e51b8152602060048201526015602482015274155b9cdd185ad9481b9bdd081a5b9a5d1a585d1959605a1b60448201526064016104aa565b60075481600301546107f69190611233565b4210156108455760405162461bcd60e51b815260206004820152601760248201527f54696d656c6f636b206e6f74207965742070617373656400000000000000000060448201526064016104aa565b805460028201546008546000906127109061086090856111fa565b61086a9190611211565b9050600061087882856111e1565b905081600b600082825461088c9190611233565b9250508190555083600360008282546108a591906111e1565b909155505082156109ab5760006108bc8483611233565b60025460405163a9059cbb60e01b8152336004820152602481018390529192506001600160a01b03169063a9059cbb906044016020604051808303816000875af115801561090e573d6000803e3d6000fd5b505050506040513d601f19601f820116820180604052508101906109329190611246565b6109705760405162461bcd60e51b815260206004820152600f60248201526e151c985b9cd9995c8819985a5b1959608a1b60448201526064016104aa565b60405184815233907fe2403640ba68fed3a2f88b7557551d1993f84b99bb10ff833f0cf8db0c5e04869060200160405180910390a250610a6c565b60025460405163a9059cbb60e01b8152336004820152602481018390526001600160a01b039091169063a9059cbb906044016020604051808303816000875af11580156109fc573d6000803e3d6000fd5b505050506040513d601f19601f82011682018060405250810190610a209190611246565b610a6c5760405162461bcd60e51b815260206004820152601760248201527f556e7374616b65207472616e73666572206661696c656400000000000000000060448201526064016104aa565b336000818152600c6020526040808220828155600181018390556002810183905560038101929092556004909101805460ff19169055517f0f5bb82176feb1b5e747e28471aa92156a04d9f3ab9f45f28e2d704232b93f7590610ad29087815260200190565b60405180910390a250505050505061054a6001600055565b610af261110a565b61054a6000611137565b610b046110e0565b33610b0d611044565b600655610b186103e4565b6005556001600160a01b03811615610b5d57610b3381610366565b6001600160a01b0382166000908152600c6020526040902060028101919091556006546001909101555b60008211610b9e5760405162461bcd60e51b815260206004820152600e60248201526d043616e6e6f74207374616b6520360941b60448201526064016104aa565b336000908152600c60205260409020600381015415610c0e5760405162461bcd60e51b815260206004820152602660248201527f43616e6e6f74207374616b6520616674657220696e6974696174696e6720756e60448201526539ba30b5b29760d11b60648201526084016104aa565b8260036000828254610c209190611233565b9091555050805483908290600090610c39908490611233565b90915550506002546040516323b872dd60e01b8152336004820152306024820152604481018590526001600160a01b03909116906323b872dd906064016020604051808303816000875af1158015610c95573d6000803e3d6000fd5b505050506040513d601f19601f82011682018060405250810190610cb99190611246565b610cfc5760405162461bcd60e51b8152602060048201526014602482015273151bdad95b8819195c1bdcda5d0819985a5b195960621b60448201526064016104aa565b60405183815233907f9e71bc8eea02a63969f509818f2dafb9254532904319f9dbda79b67bd34a5f3d9060200160405180910390a250506106e46001600055565b610d4561110a565b6213c680811115610da75760405162461bcd60e51b815260206004820152602660248201527f54696d65206c6f636b206d757374206265206265747765656e203020746f203160448201526535206461797360d01b60648201526084016104aa565b600755565b610db461110a565b80600a54610dc29190611233565b600a8190556040519081527f72e8f210806bb29eb1445af1720350cfe89280bb2c2eff23d882cd02401214619060200160405180910390a150565b610e056110e0565b33610e0e611044565b600655610e196103e4565b6005556001600160a01b03811615610e5e57610e3481610366565b6001600160a01b0382166000908152600c6020526040902060028101919091556006546001909101555b336000908152600c602052604090206002015480610eb45760405162461bcd60e51b81526020600482015260136024820152724e6f207265776172647320746f20636c61696d60681b60448201526064016104aa565b336000908152600c6020526040812060028101919091556003015415610ef257336000908152600c60205260409020600401805460ff191660011790555b60025460405163a9059cbb60e01b8152336004820152602481018390526001600160a01b039091169063a9059cbb906044016020604051808303816000875af1158015610f43573d6000803e3d6000fd5b505050506040513d601f19601f82011682018060405250810190610f679190611246565b610fac5760405162461bcd60e51b815260206004820152601660248201527514995dd85c99081d1c985b9cd9995c8819985a5b195960521b60448201526064016104aa565b60405181815233907fe2403640ba68fed3a2f88b7557551d1993f84b99bb10ff833f0cf8db0c5e04869060200160405180910390a2505061054a6001600055565b6001600160a01b0381166000908152600c6020526040812060075460038201546110179190611233565b42101561103b574260075482600301546110319190611233565b6103dd91906111e1565b50600092915050565b6000600354600003611057575060065490565b6003546004546005546110686103e4565b61107291906111e1565b61107c91906111fa565b61108e90670de0b6b3a76400006111fa565b6110989190611211565b6006546103f89190611233565b6110ad61110a565b6001600160a01b0381166110d757604051631e4fbdf760e01b8152600060048201526024016104aa565b6106e481611137565b60026000540361110357604051633ee5aeb560e01b815260040160405180910390fd5b6002600055565b6001546001600160a01b0316331461054a5760405163118cdaa760e01b81523360048201526024016104aa565b600180546001600160a01b038381166001600160a01b0319831681179093556040519116919082907f8be0079c531659141344cd1fd0a4f28419497f9722a3daafe3b4186f6b6457e090600090a35050565b60006020828403121561119b57600080fd5b81356001600160a01b03811681146103dd57600080fd5b6000602082840312156111c457600080fd5b5035919050565b634e487b7160e01b600052601160045260246000fd5b818103818111156111f4576111f46111cb565b92915050565b80820281158282048414176111f4576111f46111cb565b60008261122e57634e487b7160e01b600052601260045260246000fd5b500490565b808201808211156111f4576111f46111cb565b60006020828403121561125857600080fd5b815180151581146103dd57600080fdfea264697066735822122021c66df836b852000b9120d9661586752700e1a98028982b225638067d6e2a1a64736f6c63430008180033","linkReferences":{}},"methodIdentifiers":{"basicToken()":"190b8dc5","claimReward()":"b88a802f","completeUnstake()":"63803b23","earned(address)":"008cc262","emissionEnd()":"8368909c","emissionStart()":"513da948","feesAccrued()":"94db0595","getRemainingUnstakeTime(address)":"b9d1a32b","initiateUnstake()":"33080a12","lastApplicableTime()":"23fac263","lastUpdateTime()":"c8f33c91","owner()":"8da5cb5b","renounceOwnership()":"715018a6","rewardPerToken()":"cd3daf9d","rewardPerTokenStored()":"df136d65","rewardRate()":"7b0a47ee","setEmissionDetails(uint256)":"b293e8d2","setUnstakeFeePercent(uint256)":"5212cca8","setUnstakeTimeLock(uint256)":"a7dc23c0","stake(uint256)":"a694fc3a","stakers(address)":"9168ae72","totalStaked()":"817b1cd2","transferOwnership(address)":"f2fde38b","unstakeFeePercent()":"2bce9f85","unstakeTimeLock()":"2c1dcecf","withdrawFees(uint256)":"5e318e07"},"id":31}