{"abi":[{"type":"constructor","inputs":[{"name":"_basicToken","type":"address","internalType":"contract IERC20"},{"name":"_rewardRate","type":"uint256","internalType":"uint256"},{"name":"_emissionStart","type":"uint256","internalType":"uint256"},{"name":"_emissionDuration","type":"uint256","internalType":"uint256"}],"stateMutability":"nonpayable"},{"type":"function","name":"basicToken","inputs":[],"outputs":[{"name":"","type":"address","internalType":"contract IERC20"}],"stateMutability":"view"},{"type":"function","name":"claimReward","inputs":[],"outputs":[],"stateMutability":"nonpayable"},{"type":"function","name":"completeUnstake","inputs":[],"outputs":[],"stateMutability":"nonpayable"},{"type":"function","name":"earned","inputs":[{"name":"account","type":"address","internalType":"address"}],"outputs":[{"name":"","type":"uint256","internalType":"uint256"}],"stateMutability":"view"},{"type":"function","name":"emissionEnd","inputs":[],"outputs":[{"name":"","type":"uint256","internalType":"uint256"}],"stateMutability":"view"},{"type":"function","name":"emissionStart","inputs":[],"outputs":[{"name":"","type":"uint256","internalType":"uint256"}],"stateMutability":"view"},{"type":"function","name":"feesAccrued","inputs":[],"outputs":[{"name":"","type":"uint256","internalType":"uint256"}],"stateMutability":"view"},{"type":"function","name":"getRemainingUnstakeTime","inputs":[{"name":"_staker","type":"address","internalType":"address"}],"outputs":[{"name":"","type":"uint256","internalType":"uint256"}],"stateMutability":"view"},{"type":"function","name":"initiateUnstake","inputs":[],"outputs":[],"stateMutability":"nonpayable"},{"type":"function","name":"lastApplicableTime","inputs":[],"outputs":[{"name":"","type":"uint256","internalType":"uint256"}],"stateMutability":"view"},{"type":"function","name":"lastUpdateTime","inputs":[],"outputs":[{"name":"","type":"uint256","internalType":"uint256"}],"stateMutability":"view"},{"type":"function","name":"owner","inputs":[],"outputs":[{"name":"","type":"address","internalType":"address"}],"stateMutability":"view"},{"type":"function","name":"pendingRewards","inputs":[],"outputs":[{"name":"","type":"uint256","internalType":"uint256"}],"stateMutability":"view"},{"type":"function","name":"pendingRewardsStored","inputs":[],"outputs":[{"name":"","type":"uint256","internalType":"uint256"}],"stateMutability":"view"},{"type":"function","name":"renounceOwnership","inputs":[],"outputs":[],"stateMutability":"nonpayable"},{"type":"function","name":"rewardPerToken","inputs":[],"outputs":[{"name":"","type":"uint256","internalType":"uint256"}],"stateMutability":"view"},{"type":"function","name":"rewardPerTokenStored","inputs":[],"outputs":[{"name":"","type":"uint256","internalType":"uint256"}],"stateMutability":"view"},{"type":"function","name":"rewardRate","inputs":[],"outputs":[{"name":"","type":"uint256","internalType":"uint256"}],"stateMutability":"view"},{"type":"function","name":"setUnstakeFeePercent","inputs":[{"name":"_newFee","type":"uint256","internalType":"uint256"}],"outputs":[],"stateMutability":"nonpayable"},{"type":"function","name":"setUnstakeTimeLock","inputs":[{"name":"_newTimeLock","type":"uint256","internalType":"uint256"}],"outputs":[],"stateMutability":"nonpayable"},{"type":"function","name":"stake","inputs":[{"name":"_amount","type":"uint256","internalType":"uint256"}],"outputs":[],"stateMutability":"nonpayable"},{"type":"function","name":"stakers","inputs":[{"name":"","type":"address","internalType":"address"}],"outputs":[{"name":"amountStaked","type":"uint256","internalType":"uint256"},{"name":"rewardDebt","type":"uint256","internalType":"uint256"},{"name":"rewards","type":"uint256","internalType":"uint256"},{"name":"unstakeInitTime","type":"uint256","internalType":"uint256"}],"stateMutability":"view"},{"type":"function","name":"totalStaked","inputs":[],"outputs":[{"name":"","type":"uint256","internalType":"uint256"}],"stateMutability":"view"},{"type":"function","name":"totalStakedAccruingRewards","inputs":[],"outputs":[{"name":"","type":"uint256","internalType":"uint256"}],"stateMutability":"view"},{"type":"function","name":"transferOwnership","inputs":[{"name":"newOwner","type":"address","internalType":"address"}],"outputs":[],"stateMutability":"nonpayable"},{"type":"function","name":"unstakeFeePercent","inputs":[],"outputs":[{"name":"","type":"uint256","internalType":"uint256"}],"stateMutability":"view"},{"type":"function","name":"unstakeTimeLock","inputs":[],"outputs":[{"name":"","type":"uint256","internalType":"uint256"}],"stateMutability":"view"},{"type":"function","name":"withdrawFees","inputs":[{"name":"amount","type":"uint256","internalType":"uint256"}],"outputs":[],"stateMutability":"nonpayable"},{"type":"function","name":"withdrawRemainingTokens","inputs":[],"outputs":[],"stateMutability":"nonpayable"},{"type":"event","name":"OwnershipTransferred","inputs":[{"name":"previousOwner","type":"address","indexed":true,"internalType":"address"},{"name":"newOwner","type":"address","indexed":true,"internalType":"address"}],"anonymous":false},{"type":"event","name":"RewardPaid","inputs":[{"name":"user","type":"address","indexed":true,"internalType":"address"},{"name":"reward","type":"uint256","indexed":false,"internalType":"uint256"}],"anonymous":false},{"type":"event","name":"Staked","inputs":[{"name":"user","type":"address","indexed":true,"internalType":"address"},{"name":"amount","type":"uint256","indexed":false,"internalType":"uint256"}],"anonymous":false},{"type":"event","name":"UnstakeFeePercentUpdated","inputs":[{"name":"newFeePercent","type":"uint256","indexed":false,"internalType":"uint256"}],"anonymous":false},{"type":"event","name":"UnstakeInitiated","inputs":[{"name":"user","type":"address","indexed":true,"internalType":"address"}],"anonymous":false},{"type":"event","name":"UnstakeTimeLockUpdated","inputs":[{"name":"newTimeLock","type":"uint256","indexed":false,"internalType":"uint256"}],"anonymous":false},{"type":"event","name":"Unstaked","inputs":[{"name":"user","type":"address","indexed":true,"internalType":"address"},{"name":"amount","type":"uint256","indexed":false,"internalType":"uint256"}],"anonymous":false},{"type":"error","name":"OwnableInvalidOwner","inputs":[{"name":"owner","type":"address","internalType":"address"}]},{"type":"error","name":"OwnableUnauthorizedAccount","inputs":[{"name":"account","type":"address","internalType":"address"}]},{"type":"error","name":"ReentrancyGuardReentrantCall","inputs":[]}],"bytecode":{"object":"0x608060405262093a8060085560006009553480156200001d57600080fd5b50604051620017fd380380620017fd833981016040819052620000409162000109565b600160005533806200006c57604051631e4fbdf760e01b81526000600482015260240160405180910390fd5b6200007781620000b7565b50600280546001600160a01b0319166001600160a01b0386161790556005839055600a829055620000a9818362000156565b600b55506200017e92505050565b600180546001600160a01b038381166001600160a01b0319831681179093556040519116919082907f8be0079c531659141344cd1fd0a4f28419497f9722a3daafe3b4186f6b6457e090600090a35050565b600080600080608085870312156200012057600080fd5b84516001600160a01b03811681146200013857600080fd5b60208601516040870151606090970151919890975090945092505050565b808201808211156200017857634e487b7160e01b600052601160045260246000fd5b92915050565b61166f806200018e6000396000f3fe608060405234801561001057600080fd5b50600436106101ce5760003560e01c8063817b1cd211610104578063a7dc23c0116100a2578063cd3daf9d11610071578063cd3daf9d14610375578063df136d651461037d578063eded3fda14610386578063f2fde38b1461038e57600080fd5b8063a7dc23c01461033e578063b88a802f14610351578063b9d1a32b14610359578063c8f33c911461036c57600080fd5b80638da5cb5b116100de5780638da5cb5b146102bc5780639168ae72146102cd57806394db059514610322578063a694fc3a1461032b57600080fd5b8063817b1cd2146102a25780638368909c146102ab5780638afbf669146102b457600080fd5b806333080a12116101715780635e318e071161014b5780635e318e071461027657806363803b2314610289578063715018a6146102915780637b0a47ee1461029957600080fd5b806333080a1214610250578063513da9481461025a5780635212cca81461026357600080fd5b8063190b8dc5116101ad578063190b8dc51461020b57806323fac263146102365780632bce9f851461023e5780632c1dcecf1461024757600080fd5b80628cc262146101d357806306d6db48146101f95780630976769d14610202575b600080fd5b6101e66101e1366004611541565b6103a1565b6040519081526020015b60405180910390f35b6101e6600d5481565b6101e660045481565b60025461021e906001600160a01b031681565b6040516001600160a01b0390911681526020016101f0565b6101e6610419565b6101e660095481565b6101e660085481565b610258610432565b005b6101e6600a5481565b61025861027136600461156a565b610585565b61025861028436600461156a565b61062a565b610258610757565b610258610abd565b6101e660055481565b6101e660035481565b6101e6600b5481565b610258610acf565b6001546001600160a01b031661021e565b6103026102db366004611541565b600e6020526000908152604090208054600182015460028301546003909301549192909184565b6040805194855260208501939093529183015260608201526080016101f0565b6101e6600c5481565b61025861033936600461156a565b610cbd565b61025861034c36600461156a565b610fc0565b61025861105e565b6101e6610367366004611541565b611294565b6101e660065481565b6101e66112eb565b6101e660075481565b6101e661134c565b61025861039c366004611541565b6113d4565b6001600160a01b0381166000908152600e602052604081206003810154156103cd576002015492915050565b8060020154670de0b6b3a764000082600101546103e86112eb565b6103f29190611599565b83546103fe91906115b2565b61040891906115c9565b61041291906115eb565b9392505050565b6000600b54421061042b5750600b5490565b425b905090565b3361043b6112eb565b60075561044661134c565b600d55610451610419565b6006556001600160a01b0381166000908152600e60205260408120600381015490910361048f57610481826103a1565b600282015560075460018201555b336000908152600e6020526040902080546104e45760405162461bcd60e51b815260206004820152601060248201526f139bc81d1bdad95b9cc81cdd185ad95960821b60448201526064015b60405180910390fd5b6003810154156105365760405162461bcd60e51b815260206004820152601960248201527f556e7374616b6520616c726561647920696e697469617465640000000000000060448201526064016104db565b426003820155805460048054600090610550908490611599565b909155505060405133907f1519c8ae4064242b3caf78c4eb66acc5055fbe9cd35f28294b5492f6aea9ff6e90600090a2505050565b61058d61140f565b60c88111156105ee5760405162461bcd60e51b815260206004820152602760248201527f556e7374616b652066656520657863656564732032252c206d6178696d756d20604482015266185b1b1bddd95960ca1b60648201526084016104db565b60098190556040518181527fe718b78d7b4446604944eca0ff374177fe5e74c67f04441877baeb3d412c99c8906020015b60405180910390a150565b61063261140f565b600c548111156106845760405162461bcd60e51b815260206004820152601b60248201527f416d6f756e74206578636565647320616363727565642066656573000000000060448201526064016104db565b80600c60008282546106969190611599565b909155505060025460405163a9059cbb60e01b8152336004820152602481018390526001600160a01b039091169063a9059cbb906044016020604051808303816000875af11580156106ec573d6000803e3d6000fd5b505050506040513d601f19601f8201168201806040525081019061071091906115fe565b6107545760405162461bcd60e51b8152602060048201526015602482015274119959481dda5d1a191c985dd85b0819985a5b1959605a1b60448201526064016104db565b50565b61075f61143c565b336107686112eb565b60075561077361134c565b600d5561077e610419565b6006556001600160a01b0381166000908152600e6020526040812060038101549091036107bc576107ae826103a1565b600282015560075460018201555b336000908152600e60205260409020805461080c5760405162461bcd60e51b815260206004820152601060248201526f139bc81d1bdad95b9cc81cdd185ad95960821b60448201526064016104db565b60008160030154116108585760405162461bcd60e51b8152602060048201526015602482015274155b9cdd185ad9481b9bdd081a5b9a5d1a585d1959605a1b60448201526064016104db565b600854816003015461086a91906115eb565b4210156108b95760405162461bcd60e51b815260206004820152601760248201527f54696d656c6f636b206e6f74207965742070617373656400000000000000000060448201526064016104db565b80546002820154600954600090612710906108d490856115b2565b6108de91906115c9565b905060006108ec8285611599565b905060006108f8611466565b905082600c600082825461090c91906115eb565b9250508190555084600360008282546109259190611599565b9091555050600080875560018701819055600387015581841580159061094b5750848210155b156109b25784600d60008282546109629190611599565b90915550610972905085826115eb565b6000600289015560405186815290915033907fe2403640ba68fed3a2f88b7557551d1993f84b99bb10ff833f0cf8db0c5e04869060200160405180910390a25b60025460405163a9059cbb60e01b8152336004820152602481018390526001600160a01b039091169063a9059cbb906044016020604051808303816000875af1158015610a03573d6000803e3d6000fd5b505050506040513d601f19601f82011682018060405250810190610a2791906115fe565b610a735760405162461bcd60e51b815260206004820152601760248201527f556e7374616b65207472616e73666572206661696c656400000000000000000060448201526064016104db565b60405186815233907f0f5bb82176feb1b5e747e28471aa92156a04d9f3ab9f45f28e2d704232b93f759060200160405180910390a2505050505050505050610abb6001600055565b565b610ac561140f565b610abb60006114ef565b6000610ad96112eb565b600755610ae461134c565b600d55610aef610419565b6006556001600160a01b0381166000908152600e602052604081206003810154909103610b2d57610b1f826103a1565b600282015560075460018201555b610b3561140f565b600b544211610b925760405162461bcd60e51b815260206004820152602360248201527f43616e6e6f74207769746864726177206265666f726520656d697373696f6e20604482015262195b9960ea1b60648201526084016104db565b6000610b9c61134c565b610ba4611466565b610bae9190611599565b905060008111610bf75760405162461bcd60e51b81526020600482015260146024820152734e6f2072656d61696e696e672062616c616e636560601b60448201526064016104db565b60025460405163a9059cbb60e01b8152336004820152602481018390526001600160a01b039091169063a9059cbb906044016020604051808303816000875af1158015610c48573d6000803e3d6000fd5b505050506040513d601f19601f82011682018060405250810190610c6c91906115fe565b610cb85760405162461bcd60e51b815260206004820152601760248201527f546f6b656e207769746864726177616c206661696c656400000000000000000060448201526064016104db565b505050565b610cc561143c565b33610cce6112eb565b600755610cd961134c565b600d55610ce4610419565b6006556001600160a01b0381166000908152600e602052604081206003810154909103610d2257610d14826103a1565b600282015560075460018201555b60008311610d635760405162461bcd60e51b815260206004820152600e60248201526d043616e6e6f74207374616b6520360941b60448201526064016104db565b600a54421015610db55760405162461bcd60e51b815260206004820152601760248201527f5374616b696e67206e6f7420796574207374617274656400000000000000000060448201526064016104db565b600b54421115610e075760405162461bcd60e51b815260206004820152601860248201527f5374616b696e6720706572696f642068617320656e646564000000000000000060448201526064016104db565b336000908152600e60205260409020600381015415610e775760405162461bcd60e51b815260206004820152602660248201527f43616e6e6f74207374616b6520616674657220696e6974696174696e6720756e60448201526539ba30b5b29760d11b60648201526084016104db565b8360036000828254610e8991906115eb565b925050819055508360046000828254610ea291906115eb565b9091555050805484908290600090610ebb9084906115eb565b90915550506002546040516323b872dd60e01b8152336004820152306024820152604481018690526001600160a01b03909116906323b872dd906064016020604051808303816000875af1158015610f17573d6000803e3d6000fd5b505050506040513d601f19601f82011682018060405250810190610f3b91906115fe565b610f7e5760405162461bcd60e51b8152602060048201526014602482015273151bdad95b8819195c1bdcda5d0819985a5b195960621b60448201526064016104db565b60405184815233907f9e71bc8eea02a63969f509818f2dafb9254532904319f9dbda79b67bd34a5f3d9060200160405180910390a25050506107546001600055565b610fc861140f565b6213c68081111561102a5760405162461bcd60e51b815260206004820152602660248201527f54696d65206c6f636b206d757374206265206265747765656e203020746f203160448201526535206461797360d01b60648201526084016104db565b60088190556040518181527e304d9af03082613b46c738ade93be8d8c12d696efb7431d07e51837273c2fa9060200161061f565b61106661143c565b3361106f6112eb565b60075561107a61134c565b600d55611085610419565b6006556001600160a01b0381166000908152600e6020526040812060038101549091036110c3576110b5826103a1565b600282015560075460018201555b336000908152600e6020526040902060028101548061111a5760405162461bcd60e51b81526020600482015260136024820152724e6f207265776172647320746f20636c61696d60681b60448201526064016104db565b6000611124611466565b9050818110156111765760405162461bcd60e51b815260206004820152601d60248201527f496e73756666696369656e742066756e647320666f722072657761726400000060448201526064016104db565b81600d60008282546111889190611599565b909155505060006002848101919091555460405163a9059cbb60e01b8152336004820152602481018490526001600160a01b039091169063a9059cbb906044016020604051808303816000875af11580156111e7573d6000803e3d6000fd5b505050506040513d601f19601f8201168201806040525081019061120b91906115fe565b6112505760405162461bcd60e51b815260206004820152601660248201527514995dd85c99081d1c985b9cd9995c8819985a5b195960521b60448201526064016104db565b60405182815233907fe2403640ba68fed3a2f88b7557551d1993f84b99bb10ff833f0cf8db0c5e04869060200160405180910390a25050505050610abb6001600055565b6001600160a01b0381166000908152600e6020526040812060085460038201546112be91906115eb565b4210156112e2574260085482600301546112d891906115eb565b6104129190611599565b50600092915050565b60006004546000036112fe575060075490565b60045460055460065461130f610419565b6113199190611599565b61132391906115b2565b61133590670de0b6b3a76400006115b2565b61133f91906115c9565b60075461042d91906115eb565b600454600090808203611361575050600d5490565b6000600554600654611371610419565b61137b9190611599565b61138591906115b2565b90506000670de0b6b3a7640000838061139e85846115b2565b6113a891906115c9565b6113b291906115b2565b6113bc91906115c9565b905080600d546113cc91906115eb565b935050505090565b6113dc61140f565b6001600160a01b03811661140657604051631e4fbdf760e01b8152600060048201526024016104db565b610754816114ef565b6001546001600160a01b03163314610abb5760405163118cdaa760e01b81523360048201526024016104db565b60026000540361145f57604051633ee5aeb560e01b815260040160405180910390fd5b6002600055565b600c546003546002546040516370a0823160e01b815230600482015260009392916001600160a01b0316906370a0823190602401602060405180830381865afa1580156114b7573d6000803e3d6000fd5b505050506040513d601f19601f820116820180604052508101906114db9190611620565b6114e59190611599565b61042d9190611599565b600180546001600160a01b038381166001600160a01b0319831681179093556040519116919082907f8be0079c531659141344cd1fd0a4f28419497f9722a3daafe3b4186f6b6457e090600090a35050565b60006020828403121561155357600080fd5b81356001600160a01b038116811461041257600080fd5b60006020828403121561157c57600080fd5b5035919050565b634e487b7160e01b600052601160045260246000fd5b818103818111156115ac576115ac611583565b92915050565b80820281158282048414176115ac576115ac611583565b6000826115e657634e487b7160e01b600052601260045260246000fd5b500490565b808201808211156115ac576115ac611583565b60006020828403121561161057600080fd5b8151801515811461041257600080fd5b60006020828403121561163257600080fd5b505191905056fea26469706673582212204a4477d7dbbedd3db36dba2e210f49a698b8588e7caed26c74afc0f9693d604564736f6c63430008180033","linkReferences":{}},"methodIdentifiers":{"basicToken()":"190b8dc5","claimReward()":"b88a802f","completeUnstake()":"63803b23","earned(address)":"008cc262","emissionEnd()":"8368909c","emissionStart()":"513da948","feesAccrued()":"94db0595","getRemainingUnstakeTime(address)":"b9d1a32b","initiateUnstake()":"33080a12","lastApplicableTime()":"23fac263","lastUpdateTime()":"c8f33c91","owner()":"8da5cb5b","pendingRewards()":"eded3fda","pendingRewardsStored()":"06d6db48","renounceOwnership()":"715018a6","rewardPerToken()":"cd3daf9d","rewardPerTokenStored()":"df136d65","rewardRate()":"7b0a47ee","setUnstakeFeePercent(uint256)":"5212cca8","setUnstakeTimeLock(uint256)":"a7dc23c0","stake(uint256)":"a694fc3a","stakers(address)":"9168ae72","totalStaked()":"817b1cd2","totalStakedAccruingRewards()":"0976769d","transferOwnership(address)":"f2fde38b","unstakeFeePercent()":"2bce9f85","unstakeTimeLock()":"2c1dcecf","withdrawFees(uint256)":"5e318e07","withdrawRemainingTokens()":"8afbf669"},"id":31}