{"abi":[{"type":"constructor","inputs":[{"name":"_basicToken","type":"address","internalType":"contract IERC20"},{"name":"_rewardRate","type":"uint256","internalType":"uint256"},{"name":"_emissionStart","type":"uint256","internalType":"uint256"},{"name":"_emissionDuration","type":"uint256","internalType":"uint256"}],"stateMutability":"nonpayable"},{"type":"function","name":"basicToken","inputs":[],"outputs":[{"name":"","type":"address","internalType":"contract IERC20"}],"stateMutability":"view"},{"type":"function","name":"claimReward","inputs":[],"outputs":[],"stateMutability":"nonpayable"},{"type":"function","name":"completeUnstake","inputs":[],"outputs":[],"stateMutability":"nonpayable"},{"type":"function","name":"earned","inputs":[{"name":"account","type":"address","internalType":"address"}],"outputs":[{"name":"","type":"uint256","internalType":"uint256"}],"stateMutability":"view"},{"type":"function","name":"emissionEnd","inputs":[],"outputs":[{"name":"","type":"uint256","internalType":"uint256"}],"stateMutability":"view"},{"type":"function","name":"emissionStart","inputs":[],"outputs":[{"name":"","type":"uint256","internalType":"uint256"}],"stateMutability":"view"},{"type":"function","name":"feesAccrued","inputs":[],"outputs":[{"name":"","type":"uint256","internalType":"uint256"}],"stateMutability":"view"},{"type":"function","name":"getRemainingUnstakeTime","inputs":[{"name":"_staker","type":"address","internalType":"address"}],"outputs":[{"name":"","type":"uint256","internalType":"uint256"}],"stateMutability":"view"},{"type":"function","name":"initiateUnstake","inputs":[],"outputs":[],"stateMutability":"nonpayable"},{"type":"function","name":"lastApplicableTime","inputs":[],"outputs":[{"name":"","type":"uint256","internalType":"uint256"}],"stateMutability":"view"},{"type":"function","name":"lastUpdateTime","inputs":[],"outputs":[{"name":"","type":"uint256","internalType":"uint256"}],"stateMutability":"view"},{"type":"function","name":"owner","inputs":[],"outputs":[{"name":"","type":"address","internalType":"address"}],"stateMutability":"view"},{"type":"function","name":"renounceOwnership","inputs":[],"outputs":[],"stateMutability":"nonpayable"},{"type":"function","name":"retrieveLockedTokens","inputs":[{"name":"tokenAddress","type":"address","internalType":"address"},{"name":"amount","type":"uint256","internalType":"uint256"}],"outputs":[],"stateMutability":"nonpayable"},{"type":"function","name":"rewardPerToken","inputs":[],"outputs":[{"name":"","type":"uint256","internalType":"uint256"}],"stateMutability":"view"},{"type":"function","name":"rewardPerTokenStored","inputs":[],"outputs":[{"name":"","type":"uint256","internalType":"uint256"}],"stateMutability":"view"},{"type":"function","name":"rewardRate","inputs":[],"outputs":[{"name":"","type":"uint256","internalType":"uint256"}],"stateMutability":"view"},{"type":"function","name":"setEmissionDetails","inputs":[{"name":"_emissionDuration","type":"uint256","internalType":"uint256"}],"outputs":[],"stateMutability":"nonpayable"},{"type":"function","name":"setUnstakeFeePercent","inputs":[{"name":"_newFee","type":"uint256","internalType":"uint256"}],"outputs":[],"stateMutability":"nonpayable"},{"type":"function","name":"setUnstakeTimeLock","inputs":[{"name":"_newTimeLock","type":"uint256","internalType":"uint256"}],"outputs":[],"stateMutability":"nonpayable"},{"type":"function","name":"stake","inputs":[{"name":"_amount","type":"uint256","internalType":"uint256"}],"outputs":[],"stateMutability":"nonpayable"},{"type":"function","name":"stakers","inputs":[{"name":"","type":"address","internalType":"address"}],"outputs":[{"name":"amountStaked","type":"uint256","internalType":"uint256"},{"name":"rewardDebt","type":"uint256","internalType":"uint256"},{"name":"rewards","type":"uint256","internalType":"uint256"},{"name":"unstakeInitTime","type":"uint256","internalType":"uint256"},{"name":"claimedAfterUnstake","type":"bool","internalType":"bool"}],"stateMutability":"view"},{"type":"function","name":"totalStaked","inputs":[],"outputs":[{"name":"","type":"uint256","internalType":"uint256"}],"stateMutability":"view"},{"type":"function","name":"totalStakedAccruingRewards","inputs":[],"outputs":[{"name":"","type":"uint256","internalType":"uint256"}],"stateMutability":"view"},{"type":"function","name":"transferOwnership","inputs":[{"name":"newOwner","type":"address","internalType":"address"}],"outputs":[],"stateMutability":"nonpayable"},{"type":"function","name":"unstakeFeePercent","inputs":[],"outputs":[{"name":"","type":"uint256","internalType":"uint256"}],"stateMutability":"view"},{"type":"function","name":"unstakeTimeLock","inputs":[],"outputs":[{"name":"","type":"uint256","internalType":"uint256"}],"stateMutability":"view"},{"type":"function","name":"withdrawFees","inputs":[{"name":"amount","type":"uint256","internalType":"uint256"}],"outputs":[],"stateMutability":"nonpayable"},{"type":"event","name":"EmissionsUpdated","inputs":[{"name":"newEmissionEnd","type":"uint256","indexed":false,"internalType":"uint256"}],"anonymous":false},{"type":"event","name":"OwnershipTransferred","inputs":[{"name":"previousOwner","type":"address","indexed":true,"internalType":"address"},{"name":"newOwner","type":"address","indexed":true,"internalType":"address"}],"anonymous":false},{"type":"event","name":"RewardPaid","inputs":[{"name":"user","type":"address","indexed":true,"internalType":"address"},{"name":"reward","type":"uint256","indexed":false,"internalType":"uint256"}],"anonymous":false},{"type":"event","name":"Staked","inputs":[{"name":"user","type":"address","indexed":true,"internalType":"address"},{"name":"amount","type":"uint256","indexed":false,"internalType":"uint256"}],"anonymous":false},{"type":"event","name":"UnstakeInitiated","inputs":[{"name":"user","type":"address","indexed":true,"internalType":"address"}],"anonymous":false},{"type":"event","name":"Unstaked","inputs":[{"name":"user","type":"address","indexed":true,"internalType":"address"},{"name":"amount","type":"uint256","indexed":false,"internalType":"uint256"}],"anonymous":false},{"type":"error","name":"OwnableInvalidOwner","inputs":[{"name":"owner","type":"address","internalType":"address"}]},{"type":"error","name":"OwnableUnauthorizedAccount","inputs":[{"name":"account","type":"address","internalType":"address"}]},{"type":"error","name":"ReentrancyGuardReentrantCall","inputs":[]}],"bytecode":{"object":"0x608060405262093a8060085560006009553480156200001d57600080fd5b50604051620018cc380380620018cc833981016040819052620000409162000109565b600160005533806200006c57604051631e4fbdf760e01b81526000600482015260240160405180910390fd5b6200007781620000b7565b50600280546001600160a01b0319166001600160a01b0386161790556005839055600a829055620000a9818362000156565b600b55506200017e92505050565b600180546001600160a01b038381166001600160a01b0319831681179093556040519116919082907f8be0079c531659141344cd1fd0a4f28419497f9722a3daafe3b4186f6b6457e090600090a35050565b600080600080608085870312156200012057600080fd5b84516001600160a01b03811681146200013857600080fd5b60208601516040870151606090970151919890975090945092505050565b808201808211156200017857634e487b7160e01b600052601160045260246000fd5b92915050565b61173e806200018e6000396000f3fe608060405234801561001057600080fd5b50600436106101c35760003560e01c8063817b1cd2116100f9578063b293e8d211610097578063c8f33c9111610071578063c8f33c911461038b578063cd3daf9d14610394578063df136d651461039c578063f2fde38b146103a557600080fd5b8063b293e8d21461035d578063b88a802f14610370578063b9d1a32b1461037857600080fd5b80639168ae72116100d35780639168ae72146102c457806394db05951461032e578063a694fc3a14610337578063a7dc23c01461034a57600080fd5b8063817b1cd2146102a15780638368909c146102aa5780638da5cb5b146102b357600080fd5b80633a851f02116101665780635e318e07116101405780635e318e071461027557806363803b2314610288578063715018a6146102905780637b0a47ee1461029857600080fd5b80633a851f0214610246578063513da948146102595780635212cca81461026257600080fd5b806323fac263116101a257806323fac263146102225780632bce9f851461022a5780632c1dcecf1461023357806333080a121461023c57600080fd5b80628cc262146101c85780630976769d146101ee578063190b8dc5146101f7575b600080fd5b6101db6101d63660046115f4565b6103b8565b6040519081526020015b60405180910390f35b6101db60045481565b60025461020a906001600160a01b031681565b6040516001600160a01b0390911681526020016101e5565b6101db61044a565b6101db60095481565b6101db60085481565b610244610463565b005b61024461025436600461160f565b61063c565b6101db600a5481565b610244610270366004611639565b610817565b610244610283366004611639565b610885565b6102446109b2565b610244610e2e565b6101db60055481565b6101db60035481565b6101db600b5481565b6001546001600160a01b031661020a565b6103046102d23660046115f4565b600d60205260009081526040902080546001820154600283015460038401546004909401549293919290919060ff1685565b6040805195865260208601949094529284019190915260608301521515608082015260a0016101e5565b6101db600c5481565b610244610345366004611639565b610e40565b610244610358366004611639565b611113565b61024461036b366004611639565b611182565b6102446111d3565b6101db6103863660046115f4565b61143c565b6101db60065481565b6101db611493565b6101db60075481565b6102446103b33660046115f4565b6114f4565b6001600160a01b0381166000908152600d60205260408120600481015460ff1615156001036103ea5750600092915050565b6003810154156103fe576002015492915050565b8060020154670de0b6b3a76400008260010154610419611493565b6104239190611668565b835461042f9190611681565b6104399190611698565b61044391906116ba565b9392505050565b6000600b54421061045c5750600b5490565b425b905090565b61046b61152f565b33610474611493565b60075561047f61044a565b6006556001600160a01b0381166000908152600d602052604081206003015490036104d7576104ad816103b8565b6001600160a01b0382166000908152600d6020526040902060028101919091556007546001909101555b6001600160a01b0381166000908152600d60205260409020600301541561053d576001600160a01b0381166000908152600d602052604090206004015460ff16151560010361053d576001600160a01b0381166000908152600d60205260408120600201555b336000908152600d6020526040902080546105925760405162461bcd60e51b815260206004820152601060248201526f139bc81d1bdad95b9cc81cdd185ad95960821b60448201526064015b60405180910390fd5b6003810154156105e45760405162461bcd60e51b815260206004820152601960248201527f556e7374616b6520616c726561647920696e69746961746564000000000000006044820152606401610589565b4260038201558054600480546000906105fe908490611668565b909155505060405133907f1519c8ae4064242b3caf78c4eb66acc5055fbe9cd35f28294b5492f6aea9ff6e90600090a2505061063a6001600055565b565b610644611559565b600081116106945760405162461bcd60e51b815260206004820181905260248201527f416d6f756e74206d7573742062652067726561746572207468616e207a65726f6044820152606401610589565b6040516370a0823160e01b8152306004820152829082906001600160a01b038316906370a0823190602401602060405180830381865afa1580156106dc573d6000803e3d6000fd5b505050506040513d601f19601f8201168201806040525081019061070091906116cd565b101561075d5760405162461bcd60e51b815260206004820152602660248201527f496e73756666696369656e7420746f6b656e2062616c616e636520696e20636f6044820152651b9d1c9858dd60d21b6064820152608401610589565b60405163a9059cbb60e01b8152336004820152602481018390526001600160a01b0382169063a9059cbb906044016020604051808303816000875af11580156107aa573d6000803e3d6000fd5b505050506040513d601f19601f820116820180604052508101906107ce91906116e6565b6108125760405162461bcd60e51b8152602060048201526015602482015274151bdad95b881d1c985b9cd9995c8819985a5b1959605a1b6044820152606401610589565b505050565b61081f611559565b60c88111156108805760405162461bcd60e51b815260206004820152602760248201527f556e7374616b652066656520657863656564732032252c206d6178696d756d20604482015266185b1b1bddd95960ca1b6064820152608401610589565b600955565b61088d611559565b600c548111156108df5760405162461bcd60e51b815260206004820152601b60248201527f416d6f756e7420657863656564732061636372756564206665657300000000006044820152606401610589565b80600c60008282546108f19190611668565b909155505060025460405163a9059cbb60e01b8152336004820152602481018390526001600160a01b039091169063a9059cbb906044016020604051808303816000875af1158015610947573d6000803e3d6000fd5b505050506040513d601f19601f8201168201806040525081019061096b91906116e6565b6109af5760405162461bcd60e51b8152602060048201526015602482015274119959481dda5d1a191c985dd85b0819985a5b1959605a1b6044820152606401610589565b50565b6109ba61152f565b336109c3611493565b6007556109ce61044a565b6006556001600160a01b0381166000908152600d60205260408120600301549003610a26576109fc816103b8565b6001600160a01b0382166000908152600d6020526040902060028101919091556007546001909101555b6001600160a01b0381166000908152600d602052604090206003015415610a8c576001600160a01b0381166000908152600d602052604090206004015460ff161515600103610a8c576001600160a01b0381166000908152600d60205260408120600201555b336000908152600d602052604090208054610adc5760405162461bcd60e51b815260206004820152601060248201526f139bc81d1bdad95b9cc81cdd185ad95960821b6044820152606401610589565b6000816003015411610b285760405162461bcd60e51b8152602060048201526015602482015274155b9cdd185ad9481b9bdd081a5b9a5d1a585d1959605a1b6044820152606401610589565b6008548160030154610b3a91906116ba565b421015610b895760405162461bcd60e51b815260206004820152601760248201527f54696d656c6f636b206e6f7420796574207061737365640000000000000000006044820152606401610589565b8054600282015460095460009061271090610ba49085611681565b610bae9190611698565b90506000610bbc8285611668565b905081600c6000828254610bd091906116ba565b925050819055508360036000828254610be99190611668565b90915550508215610cef576000610c0084836116ba565b60025460405163a9059cbb60e01b8152336004820152602481018390529192506001600160a01b03169063a9059cbb906044016020604051808303816000875af1158015610c52573d6000803e3d6000fd5b505050506040513d601f19601f82011682018060405250810190610c7691906116e6565b610cb45760405162461bcd60e51b815260206004820152600f60248201526e151c985b9cd9995c8819985a5b1959608a1b6044820152606401610589565b60405184815233907fe2403640ba68fed3a2f88b7557551d1993f84b99bb10ff833f0cf8db0c5e04869060200160405180910390a250610db0565b60025460405163a9059cbb60e01b8152336004820152602481018390526001600160a01b039091169063a9059cbb906044016020604051808303816000875af1158015610d40573d6000803e3d6000fd5b505050506040513d601f19601f82011682018060405250810190610d6491906116e6565b610db05760405162461bcd60e51b815260206004820152601760248201527f556e7374616b65207472616e73666572206661696c65640000000000000000006044820152606401610589565b336000818152600d6020526040808220828155600181018390556002810183905560038101929092556004909101805460ff19169055517f0f5bb82176feb1b5e747e28471aa92156a04d9f3ab9f45f28e2d704232b93f7590610e169087815260200190565b60405180910390a250505050505061063a6001600055565b610e36611559565b61063a6000611586565b610e4861152f565b33610e51611493565b600755610e5c61044a565b6006556001600160a01b0381166000908152600d60205260408120600301549003610eb457610e8a816103b8565b6001600160a01b0382166000908152600d6020526040902060028101919091556007546001909101555b6001600160a01b0381166000908152600d602052604090206003015415610f1a576001600160a01b0381166000908152600d602052604090206004015460ff161515600103610f1a576001600160a01b0381166000908152600d60205260408120600201555b60008211610f5b5760405162461bcd60e51b815260206004820152600e60248201526d043616e6e6f74207374616b6520360941b6044820152606401610589565b336000908152600d60205260409020600381015415610fcb5760405162461bcd60e51b815260206004820152602660248201527f43616e6e6f74207374616b6520616674657220696e6974696174696e6720756e60448201526539ba30b5b29760d11b6064820152608401610589565b8260036000828254610fdd91906116ba565b925050819055508260046000828254610ff691906116ba565b909155505080548390829060009061100f9084906116ba565b90915550506002546040516323b872dd60e01b8152336004820152306024820152604481018590526001600160a01b03909116906323b872dd906064016020604051808303816000875af115801561106b573d6000803e3d6000fd5b505050506040513d601f19601f8201168201806040525081019061108f91906116e6565b6110d25760405162461bcd60e51b8152602060048201526014602482015273151bdad95b8819195c1bdcda5d0819985a5b195960621b6044820152606401610589565b60405183815233907f9e71bc8eea02a63969f509818f2dafb9254532904319f9dbda79b67bd34a5f3d9060200160405180910390a250506109af6001600055565b61111b611559565b6213c68081111561117d5760405162461bcd60e51b815260206004820152602660248201527f54696d65206c6f636b206d757374206265206265747765656e203020746f203160448201526535206461797360d01b6064820152608401610589565b600855565b61118a611559565b80600b5461119891906116ba565b600b8190556040519081527f72e8f210806bb29eb1445af1720350cfe89280bb2c2eff23d882cd02401214619060200160405180910390a150565b6111db61152f565b336111e4611493565b6007556111ef61044a565b6006556001600160a01b0381166000908152600d602052604081206003015490036112475761121d816103b8565b6001600160a01b0382166000908152600d6020526040902060028101919091556007546001909101555b6001600160a01b0381166000908152600d6020526040902060030154156112ad576001600160a01b0381166000908152600d602052604090206004015460ff1615156001036112ad576001600160a01b0381166000908152600d60205260408120600201555b336000908152600d6020526040902060020154806113035760405162461bcd60e51b81526020600482015260136024820152724e6f207265776172647320746f20636c61696d60681b6044820152606401610589565b336000908152600d602052604081206002810191909155600301541561134157336000908152600d60205260409020600401805460ff191660011790555b60025460405163a9059cbb60e01b8152336004820152602481018390526001600160a01b039091169063a9059cbb906044016020604051808303816000875af1158015611392573d6000803e3d6000fd5b505050506040513d601f19601f820116820180604052508101906113b691906116e6565b6113fb5760405162461bcd60e51b815260206004820152601660248201527514995dd85c99081d1c985b9cd9995c8819985a5b195960521b6044820152606401610589565b60405181815233907fe2403640ba68fed3a2f88b7557551d1993f84b99bb10ff833f0cf8db0c5e04869060200160405180910390a2505061063a6001600055565b6001600160a01b0381166000908152600d60205260408120600854600382015461146691906116ba565b42101561148a5742600854826003015461148091906116ba565b6104439190611668565b50600092915050565b60006004546000036114a6575060075490565b6004546005546006546114b761044a565b6114c19190611668565b6114cb9190611681565b6114dd90670de0b6b3a7640000611681565b6114e79190611698565b60075461045e91906116ba565b6114fc611559565b6001600160a01b03811661152657604051631e4fbdf760e01b815260006004820152602401610589565b6109af81611586565b60026000540361155257604051633ee5aeb560e01b815260040160405180910390fd5b6002600055565b6001546001600160a01b0316331461063a5760405163118cdaa760e01b8152336004820152602401610589565b600180546001600160a01b038381166001600160a01b0319831681179093556040519116919082907f8be0079c531659141344cd1fd0a4f28419497f9722a3daafe3b4186f6b6457e090600090a35050565b80356001600160a01b03811681146115ef57600080fd5b919050565b60006020828403121561160657600080fd5b610443826115d8565b6000806040838503121561162257600080fd5b61162b836115d8565b946020939093013593505050565b60006020828403121561164b57600080fd5b5035919050565b634e487b7160e01b600052601160045260246000fd5b8181038181111561167b5761167b611652565b92915050565b808202811582820484141761167b5761167b611652565b6000826116b557634e487b7160e01b600052601260045260246000fd5b500490565b8082018082111561167b5761167b611652565b6000602082840312156116df57600080fd5b5051919050565b6000602082840312156116f857600080fd5b8151801515811461044357600080fdfea2646970667358221220de469e69a41c34a5c4accfd9145e31b7f6bc69c35567f3977c6105e3ed99f38d64736f6c63430008180033","linkReferences":{}},"methodIdentifiers":{"basicToken()":"190b8dc5","claimReward()":"b88a802f","completeUnstake()":"63803b23","earned(address)":"008cc262","emissionEnd()":"8368909c","emissionStart()":"513da948","feesAccrued()":"94db0595","getRemainingUnstakeTime(address)":"b9d1a32b","initiateUnstake()":"33080a12","lastApplicableTime()":"23fac263","lastUpdateTime()":"c8f33c91","owner()":"8da5cb5b","renounceOwnership()":"715018a6","retrieveLockedTokens(address,uint256)":"3a851f02","rewardPerToken()":"cd3daf9d","rewardPerTokenStored()":"df136d65","rewardRate()":"7b0a47ee","setEmissionDetails(uint256)":"b293e8d2","setUnstakeFeePercent(uint256)":"5212cca8","setUnstakeTimeLock(uint256)":"a7dc23c0","stake(uint256)":"a694fc3a","stakers(address)":"9168ae72","totalStaked()":"817b1cd2","totalStakedAccruingRewards()":"0976769d","transferOwnership(address)":"f2fde38b","unstakeFeePercent()":"2bce9f85","unstakeTimeLock()":"2c1dcecf","withdrawFees(uint256)":"5e318e07"},"id":31}